:100000000C945D000C9485000C9485000C94850084
:100010000C9485000C9485000C9485000C9485004C
:100020000C9485000C9485000C9485000C9485003C
:100030000C9485000C9485000C9485000C9485002C
:100040000C946E020C9485000C9485000C94850031
:100050000C9485000C9485000C9485000C9485000C
:100060000C9485000C94850000000008000201003B
:100070000003040700000000000000000102040863
:100080001020408001020408102001020408102002
:10009000040404040404040402020202020203032E
:1000A0000303030300000000250028002B000000CC
:1000B0000000240027002A00AA0011241FBECFEF51
:1000C000D8E0DEBFCDBF11E0A0E0B1E0E2E7F8E0AC
:1000D00002C005900D92A032B107D9F721E0A0E24D
:1000E000B1E001C01D92A134B207E1F710E0CAEB04
:1000F000D0E004C02297FE010E943304C83BD10720
:10010000C9F70E94E1030C9437040C94000020E02E
:1001100042E060E180E291E00E94870160E071E0EE
:1001200080E291E00C942E0441E060E080E291E0F6
:100130000E946D016DE071E080E291E00E942E046A
:1001400068EE73E080E090E00E94DB0280E291E0E4
:100150000C946601CF92EF920F9388E0C82E99E03D
:10016000E92E0AE02BE04CE06DE080E291E00E9495
:1001700042020F91EF90CF900895CF93DF93EC015F
:1001800060E08E810E94AA0381E090E00E94030358
:1001900061E08E810E94AA0381E090E00E94030347
:1001A00060E08E810E94AA0384E690E0DF91CF9107
:1001B0000C940303CF92DF92EF92FF920F931F9361
:1001C000CF93DF937C01C0E0D0E0C62ED12C870115
:1001D0000C0F1D1F61E0F80187810E947103B601B9
:1001E0000C2E02C0759567950A94E2F76170F801CC
:1001F00087810E94AA032196C430D10541F7C70127
:10020000DF91CF911F910F91FF90EF90DF90CF90F2
:100210000C94BD00CF92DF92EF92FF920F931F9349
:10022000CF93DF937C01C0E0D0E0C62ED12C8701B4
:100230000C0F1D1F61E0F80187810E947103B60158
:100240000C2E02C0759567950A94E2F76170F8016B
:1002500087810E94AA032196C830D10541F7C701C2
:10026000DF91CF911F910F91FF90EF90DF90CF9092
:100270000C94BD001F93CF93DF93EC01162F642FD6
:100280008C810E94AA038D818F3F19F060E00E944B
:10029000AA038F85612F84FF06C0CE01DF91CF9125
:1002A0001F910C940A0170E084E0759567958A951A
:1002B000E1F7CE010E94DA00612FCE01DF91CF91EC
:1002C0001F910C94DA0040E00C943A0161E00E9426
:1002D000630180ED97E00C940303443008F043E0A1
:1002E000FC012389421710F04FEF420FFC01E40F8D
:1002F000F11D2489260F2068622F0C946301FC01F4
:100300006089262F2460208B6C600C946301CF934E
:10031000DF93EC01423018F08F8588608F874B8B1C
:100320001C8A80E48D8B6E8B70E0605C7F4F6F8BDE
:10033000222329F0413019F48F8584608F8780E56E
:1003400093EC0E94030360E08C810E94AA0360E0AA
:100350008E810E94AA038D818F3F19F060E00E9478
:10036000AA036F8564FD1DC063E0CE010E94DA0020
:1003700084E991E10E94030363E0CE010E94DA0068
:1003800084E991E10E94030363E0CE010E94DA0058
:1003900086E990E00E94030362E0CE010E94DA0049
:1003A00016C06062CE010E94630184E991E10E945F
:1003B00003036F856062CE010E94630186E990E0CD
:1003C0000E9403036F856062CE010E9463016F8506
:1003D0006062CE010E94630184E0888BCE010E949E
:1003E0007F01CE010E94660182E0898B66E0CE012A
:1003F000DF91CF910C9463016F927F928F92AF92B5
:10040000CF92EF920F931F93CF93DF93CDB7DEB7C9
:100410003C01162F842F5D854E853F859889F30119
:10042000848325830683E782C086A18682865387DC
:1004300044873587968761E00E947103F3018581C7
:100440008F3F19F061E00E94710361E0F301868142
:100450000E947103112319F0F301178603C080E194
:10046000F301878720E041E060E1C301DF91CF9194
:100470001F910F91EF90CF90AF908F907F906F90E2
:100480000C9487018F92AF92CF92EF920F93DC0181
:1004900013961C921E921297ECE1F1E0ED93FC93FF
:1004A0001F921F921F921F928C2CAE2CC02EE22EF8
:1004B000042F2FEF462F61E00E94FC010F900F9058
:1004C0000F900F900F91EF90CF90AF908F90089575
:1004D00041E00E943A0181E090E008951F920F925E
:1004E0000FB60F9211242F933F938F939F93AF9347
:1004F000BF938091390190913A01A0913B01B09155
:100500003C013091380123E0230F2D3720F4019670
:10051000A11DB11D05C026E8230F0296A11DB11D26
:10052000209338018093390190933A01A0933B01C5
:10053000B0933C0180913D0190913E01A0913F011B
:10054000B09140010196A11DB11D80933D01909392
:100550003E01A0933F01B0934001BF91AF919F91A5
:100560008F913F912F910F900FBE0F901F90189574
:100570003FB7F89480913D0190913E01A0913F01D9
:10058000B091400126B5A89B05C02F3F19F00196F8
:10059000A11DB11D3FBF6627782F892F9A2F620FAB
:1005A000711D811D911D42E0660F771F881F991FE5
:1005B0004A95D1F70895CF92DF92EF92FF92CF93B1
:1005C000DF936B017C010E94B802EB01C114D104DE
:1005D000E104F10489F00E9430040E94B8026C1B0F
:1005E0007D0B683E734090F381E0C81AD108E108A2
:1005F000F108C851DC4FEACFDF91CF91FF90EF9027
:10060000DF90CF900895019739F0880F991F880FD8
:10061000991F02970197F1F70895789484B5826045
:1006200084BD84B5816084BD85B5826085BD85B596
:10063000816085BDEEE6F0E0808181608083E1E845
:10064000F0E010828081826080838081816080837D
:10065000E0E8F0E0808181608083E1EBF0E0808180
:1006600084608083E0EBF0E0808181608083EAE752
:10067000F0E08081846080838081826080838081DB
:10068000816080838081806880831092C10008959A
:10069000833081F028F4813099F08230A1F0089500
:1006A0008730A9F08830B9F08430D1F4809180008F
:1006B0008F7D03C0809180008F77809380000895A4
:1006C00084B58F7702C084B58F7D84BD08958091F5
:1006D000B0008F7703C08091B0008F7D8093B00011
:1006E0000895CF93DF9390E0FC01E458FF4F2491ED
:1006F000FC01E057FF4F8491882349F190E0880F77
:10070000991FFC01E255FF4FA591B4918C559F4F65
:10071000FC01C591D4919FB7611108C0F8948C91E8
:10072000209582238C93888182230AC0623051F401
:10073000F8948C91322F309583238C938881822B6F
:10074000888304C0F8948C91822B8C939FBFDF9197
:10075000CF9108950F931F93CF93DF931F92CDB73F
:10076000DEB7282F30E0F901E859FF4F8491F901F5
:10077000E458FF4F1491F901E057FF4F0491002313
:10078000C9F0882321F069830E9448036981E02F22
:10079000F0E0EE0FFF1FEC55FF4FA591B4919FB70E
:1007A000F8948C91611103C01095812301C0812BB5
:1007B0008C939FBF0F90DF91CF911F910F91089560
:1007C00008950E940D030E94E0030E948700C0E08C
:1007D000D0E00E9494002097E1F30E940000F9CF3E
:1007E000CF92DF92EF92FF920F931F93CF93DF93FD
:1007F0006C017A01EB01E60EF71E00E010E0CE1569
:10080000DF0561F06991D601ED91FC910190F081D5
:10081000E02DC6010995080F191FF1CFC801DF911E
:10082000CF911F910F91FF90EF90DF90CF9008959F
:100830006115710581F0DB010D900020E9F7AD0134
:1008400041505109461B570BDC01ED91FC91028090
:10085000F381E02D099480E090E008950C94180451
:100860000895EE0FFF1F0590F491E02D0994F89480
:02087000FFCFB8
:1008720068656C6C6F7720776F726C64007362735B
:10088200206F6E6C696E6500000000006802F00364
:00000001FF
